{
  "_format": "hh-sol-artifact-1",
  "contractName": "p2pBank",
  "sourceName": "contracts/p2pBank.sol",
  "abi": [
    {
      "inputs": [],
      "stateMutability": "nonpayable",
      "type": "constructor"
    },
    {
      "anonymous": false,
      "inputs": [
        {
          "indexed": false,
          "internalType": "address",
          "name": "guarantor",
          "type": "address"
        },
        {
          "indexed": false,
          "internalType": "bool",
          "name": "approve",
          "type": "bool"
        }
      ],
      "name": "approveGuarenteeEvent",
      "type": "event"
    },
    {
      "anonymous": false,
      "inputs": [
        {
          "indexed": false,
          "internalType": "address",
          "name": "borrower",
          "type": "address"
        },
        {
          "indexed": false,
          "internalType": "uint256",
          "name": "interestCutOff",
          "type": "uint256"
        }
      ],
      "name": "guarenteeProposalEvent",
      "type": "event"
    },
    {
      "anonymous": false,
      "inputs": [
        {
          "indexed": false,
          "internalType": "uint256",
          "name": "loanNumber",
          "type": "uint256"
        },
        {
          "indexed": false,
          "internalType": "uint256",
          "name": "loanAmount",
          "type": "uint256"
        },
        {
          "indexed": false,
          "internalType": "address",
          "name": "borrower",
          "type": "address"
        },
        {
          "indexed": false,
          "internalType": "uint256",
          "name": "interest",
          "type": "uint256"
        },
        {
          "indexed": false,
          "internalType": "uint256",
          "name": "lapseDate",
          "type": "uint256"
        },
        {
          "indexed": false,
          "internalType": "uint256",
          "name": "requestDate",
          "type": "uint256"
        }
      ],
      "name": "newLoanRequest",
      "type": "event"
    },
    {
      "inputs": [
        {
          "internalType": "address",
          "name": "guarantor",
          "type": "address"
        },
        {
          "internalType": "bool",
          "name": "approve",
          "type": "bool"
        }
      ],
      "name": "approveGuarentee",
      "outputs": [],
      "stateMutability": "nonpayable",
      "type": "function"
    },
    {
      "inputs": [
        {
          "internalType": "uint256",
          "name": "",
          "type": "uint256"
        }
      ],
      "name": "borrowers",
      "outputs": [
        {
          "internalType": "address",
          "name": "",
          "type": "address"
        }
      ],
      "stateMutability": "view",
      "type": "function"
    },
    {
      "inputs": [
        {
          "internalType": "address",
          "name": "borrowerAddress",
          "type": "address"
        }
      ],
      "name": "claimGuarantee",
      "outputs": [],
      "stateMutability": "nonpayable",
      "type": "function"
    },
    {
      "inputs": [
        {
          "internalType": "uint256",
          "name": "interestCutOff",
          "type": "uint256"
        },
        {
          "internalType": "address",
          "name": "borrower",
          "type": "address"
        }
      ],
      "name": "guarenteeLoan",
      "outputs": [],
      "stateMutability": "payable",
      "type": "function"
    },
    {
      "inputs": [
        {
          "internalType": "address",
          "name": "",
          "type": "address"
        }
      ],
      "name": "guarenteeProposals",
      "outputs": [
        {
          "internalType": "uint256",
          "name": "interestCutOff",
          "type": "uint256"
        },
        {
          "internalType": "address payable",
          "name": "guarantor",
          "type": "address"
        },
        {
          "internalType": "address payable",
          "name": "borrower",
          "type": "address"
        },
        {
          "internalType": "uint256",
          "name": "loanAmount",
          "type": "uint256"
        }
      ],
      "stateMutability": "view",
      "type": "function"
    },
    {
      "inputs": [
        {
          "internalType": "address",
          "name": "borrowerAddress",
          "type": "address"
        }
      ],
      "name": "lendLoan",
      "outputs": [],
      "stateMutability": "payable",
      "type": "function"
    },
    {
      "inputs": [],
      "name": "loanNumber",
      "outputs": [
        {
          "internalType": "uint256",
          "name": "",
          "type": "uint256"
        }
      ],
      "stateMutability": "view",
      "type": "function"
    },
    {
      "inputs": [
        {
          "internalType": "address",
          "name": "",
          "type": "address"
        }
      ],
      "name": "loanRequests",
      "outputs": [
        {
          "internalType": "uint256",
          "name": "loanAmount",
          "type": "uint256"
        },
        {
          "internalType": "uint256",
          "name": "requestDate",
          "type": "uint256"
        },
        {
          "internalType": "uint256",
          "name": "lapseDate",
          "type": "uint256"
        },
        {
          "internalType": "uint256",
          "name": "interest",
          "type": "uint256"
        },
        {
          "internalType": "address payable",
          "name": "lendor",
          "type": "address"
        },
        {
          "internalType": "address payable",
          "name": "borrower",
          "type": "address"
        },
        {
          "internalType": "address payable",
          "name": "guarantor",
          "type": "address"
        },
        {
          "internalType": "uint256",
          "name": "lendorInterest",
          "type": "uint256"
        },
        {
          "internalType": "bool",
          "name": "isGuarenteed",
          "type": "bool"
        },
        {
          "internalType": "uint256",
          "name": "loanID",
          "type": "uint256"
        },
        {
          "internalType": "uint256",
          "name": "interestPaid",
          "type": "uint256"
        }
      ],
      "stateMutability": "view",
      "type": "function"
    },
    {
      "inputs": [],
      "name": "payBackLoan",
      "outputs": [],
      "stateMutability": "payable",
      "type": "function"
    },
    {
      "inputs": [
        {
          "internalType": "uint256",
          "name": "loanAmount",
          "type": "uint256"
        },
        {
          "internalType": "uint256",
          "name": "lapseDate",
          "type": "uint256"
        },
        {
          "internalType": "uint256",
          "name": "interest",
          "type": "uint256"
        }
      ],
      "name": "requestLoan",
      "outputs": [],
      "stateMutability": "nonpayable",
      "type": "function"
    },
    {
      "inputs": [],
      "name": "viewAllLoanRequests",
      "outputs": [
        {
          "components": [
            {
              "internalType": "uint256",
              "name": "loanAmount",
              "type": "uint256"
            },
            {
              "internalType": "uint256",
              "name": "requestDate",
              "type": "uint256"
            },
            {
              "internalType": "uint256",
              "name": "lapseDate",
              "type": "uint256"
            },
            {
              "internalType": "uint256",
              "name": "interest",
              "type": "uint256"
            },
            {
              "internalType": "address payable",
              "name": "lendor",
              "type": "address"
            },
            {
              "internalType": "address payable",
              "name": "borrower",
              "type": "address"
            },
            {
              "internalType": "address payable",
              "name": "guarantor",
              "type": "address"
            },
            {
              "internalType": "uint256",
              "name": "lendorInterest",
              "type": "uint256"
            },
            {
              "internalType": "bool",
              "name": "isGuarenteed",
              "type": "bool"
            },
            {
              "internalType": "uint256",
              "name": "loanID",
              "type": "uint256"
            },
            {
              "internalType": "uint256",
              "name": "interestPaid",
              "type": "uint256"
            }
          ],
          "internalType": "struct p2pBank.loanRequest[]",
          "name": "",
          "type": "tuple[]"
        }
      ],
      "stateMutability": "view",
      "type": "function"
    },
    {
      "inputs": [
        {
          "internalType": "address",
          "name": "borrowerAddress",
          "type": "address"
        }
      ],
      "name": "viewLoanRequest",
      "outputs": [
        {
          "components": [
            {
              "internalType": "uint256",
              "name": "loanAmount",
              "type": "uint256"
            },
            {
              "internalType": "uint256",
              "name": "requestDate",
              "type": "uint256"
            },
            {
              "internalType": "uint256",
              "name": "lapseDate",
              "type": "uint256"
            },
            {
              "internalType": "uint256",
              "name": "interest",
              "type": "uint256"
            },
            {
              "internalType": "address payable",
              "name": "lendor",
              "type": "address"
            },
            {
              "internalType": "address payable",
              "name": "borrower",
              "type": "address"
            },
            {
              "internalType": "address payable",
              "name": "guarantor",
              "type": "address"
            },
            {
              "internalType": "uint256",
              "name": "lendorInterest",
              "type": "uint256"
            },
            {
              "internalType": "bool",
              "name": "isGuarenteed",
              "type": "bool"
            },
            {
              "internalType": "uint256",
              "name": "loanID",
              "type": "uint256"
            },
            {
              "internalType": "uint256",
              "name": "interestPaid",
              "type": "uint256"
            }
          ],
          "internalType": "struct p2pBank.loanRequest",
          "name": "",
          "type": "tuple"
        }
      ],
      "stateMutability": "view",
      "type": "function"
    }
  ],
  "bytecode": "0x608060405234801561001057600080fd5b506000808190555061430c806100276000396000f3fe6080604052600436106100a75760003560e01c8063825c147111610064578063825c147114610201578063ae07e5231461022c578063ccdbbee114610248578063e9cd5d6014610252578063edadbbfe1461027b578063fc493851146102a4576100a7565b80630f80b5c5146100ac57806312a9d09c146100f35780634f1fc7431461013057806361d393eb1461015b5780637045722e1461019b5780637924d93f146101c4575b600080fd5b3480156100b857600080fd5b506100d360048036038101906100ce91906132a3565b6102c0565b6040516100ea9b9a99989796959493929190613325565b60405180910390f35b3480156100ff57600080fd5b5061011a600480360381019061011591906132a3565b610387565b60405161012791906134de565b60405180910390f35b34801561013c57600080fd5b50610145610615565b604051610152919061368b565b60405180910390f35b34801561016757600080fd5b50610182600480360381019061017d91906132a3565b6108a2565b60405161019294939291906136ad565b60405180910390f35b3480156101a757600080fd5b506101c260048036038101906101bd91906132a3565b610912565b005b3480156101d057600080fd5b506101eb60048036038101906101e6919061371e565b610fd0565b6040516101f8919061375a565b60405180910390f35b34801561020d57600080fd5b5061021661100f565b6040516102239190613775565b60405180910390f35b610246600480360381019061024191906132a3565b611015565b005b610250611604565b005b34801561025e57600080fd5b50610279600480360381019061027491906137bc565b611f89565b005b34801561028757600080fd5b506102a2600480360381019061029d91906137fc565b61275c565b005b6102be60048036038101906102b9919061384f565b612b51565b005b60026020528060005260406000206000915090508060000154908060010154908060020154908060030154908060040160009054906101000a900473ffffffffffffffffffffffffffffffffffffffff16908060050160009054906101000a900473ffffffffffffffffffffffffffffffffffffffff16908060060160009054906101000a900473ffffffffffffffffffffffffffffffffffffffff16908060070154908060080160009054906101000a900460ff169080600901549080600a015490508b565b61038f6131a2565b600073ffffffffffffffffffffffffffffffffffffffff16600260008473ffffffffffffffffffffffffffffffffffffffff1673ffffffffffffffffffffffffffffffffffffffff16815260200190815260200160002060050160009054906101000a900473ffffffffffffffffffffffffffffffffffffffff1673ffffffffffffffffffffffffffffffffffffffff1603610460576040517f08c379a0000000000000000000000000000000000000000000000000000000008152600401610457906138ec565b60405180910390fd5b600260008373ffffffffffffffffffffffffffffffffffffffff1673ffffffffffffffffffffffffffffffffffffffff16815260200190815260200160002060405180610160016040529081600082015481526020016001820154815260200160028201548152602001600382015481526020016004820160009054906101000a900473ffffffffffffffffffffffffffffffffffffffff1673ffffffffffffffffffffffffffffffffffffffff1673ffffffffffffffffffffffffffffffffffffffff1681526020016005820160009054906101000a900473ffffffffffffffffffffffffffffffffffffffff1673ffffffffffffffffffffffffffffffffffffffff1673ffffffffffffffffffffffffffffffffffffffff1681526020016006820160009054906101000a900473ffffffffffffffffffffffffffffffffffffffff1673ffffffffffffffffffffffffffffffffffffffff1673ffffffffffffffffffffffffffffffffffffffff168152602001600782015481526020016008820160009054906101000a900460ff1615151515815260200160098201548152602001600a820154815250509050919050565b60606000805467ffffffffffffffff8111156106345761063361390c565b5b60405190808252806020026020018201604052801561066d57816020015b61065a6131a2565b8152602001906001900390816106525790505b50905060005b60005481101561089a5760026000600183815481106106955761069461393b565b5b9060005260206000200160009054906101000a900473ffffffffffffffffffffffffffffffffffffffff1673ffffffffffffffffffffffffffffffffffffffff1673ffffffffffffffffffffffffffffffffffffffff16815260200190815260200160002060405180610160016040529081600082015481526020016001820154815260200160028201548152602001600382015481526020016004820160009054906101000a900473ffffffffffffffffffffffffffffffffffffffff1673ffffffffffffffffffffffffffffffffffffffff1673ffffffffffffffffffffffffffffffffffffffff1681526020016005820160009054906101000a900473ffffffffffffffffffffffffffffffffffffffff1673ffffffffffffffffffffffffffffffffffffffff1673ffffffffffffffffffffffffffffffffffffffff1681526020016006820160009054906101000a900473ffffffffffffffffffffffffffffffffffffffff1673ffffffffffffffffffffffffffffffffffffffff1673ffffffffffffffffffffffffffffffffffffffff168152602001600782015481526020016008820160009054906101000a900460ff1615151515815260200160098201548152602001600a8201548152505082828151811061087c5761087b61393b565b5b6020026020010181905250808061089290613999565b915050610673565b508091505090565b60036020528060005260406000206000915090508060000154908060010160009054906101000a900473ffffffffffffffffffffffffffffffffffffffff16908060020160009054906101000a900473ffffffffffffffffffffffffffffffffffffffff16908060030154905084565b600073ffffffffffffffffffffffffffffffffffffffff16600260008373ffffffffffffffffffffffffffffffffffffffff1673ffffffffffffffffffffffffffffffffffffffff16815260200190815260200160002060050160009054906101000a900473ffffffffffffffffffffffffffffffffffffffff1673ffffffffffffffffffffffffffffffffffffffff16036109e3576040517f08c379a00000000000000000000000000000000000000000000000000000000081526004016109da906138ec565b60405180910390fd5b600073ffffffffffffffffffffffffffffffffffffffff16600260008373ffffffffffffffffffffffffffffffffffffffff1673ffffffffffffffffffffffffffffffffffffffff16815260200190815260200160002060040160009054906101000a900473ffffffffffffffffffffffffffffffffffffffff1673ffffffffffffffffffffffffffffffffffffffff1603610ab4576040517f08c379a0000000000000000000000000000000000000000000000000000000008152600401610aab90613a53565b60405180910390fd5b3373ffffffffffffffffffffffffffffffffffffffff16600260008373ffffffffffffffffffffffffffffffffffffffff1673ffffffffffffffffffffffffffffffffffffffff16815260200190815260200160002060040160009054906101000a900473ffffffffffffffffffffffffffffffffffffffff1673ffffffffffffffffffffffffffffffffffffffff1614610b84576040517f08c379a0000000000000000000000000000000000000000000000000000000008152600401610b7b90613abf565b60405180910390fd5b600073ffffffffffffffffffffffffffffffffffffffff16600260008373ffffffffffffffffffffffffffffffffffffffff1673ffffffffffffffffffffffffffffffffffffffff16815260200190815260200160002060060160009054906101000a900473ffffffffffffffffffffffffffffffffffffffff1673ffffffffffffffffffffffffffffffffffffffff1603610c55576040517f08c379a0000000000000000000000000000000000000000000000000000000008152600401610c4c90613b2b565b60405180910390fd5b42600260008373ffffffffffffffffffffffffffffffffffffffff1673ffffffffffffffffffffffffffffffffffffffff168152602001908152602001600020600201541115610cda576040517f08c379a0000000000000000000000000000000000000000000000000000000008152600401610cd190613b97565b60405180910390fd5b600066038d7ea4c68000600260008473ffffffffffffffffffffffffffffffffffffffff1673ffffffffffffffffffffffffffffffffffffffff16815260200190815260200160002060070154600260008573ffffffffffffffffffffffffffffffffffffffff1673ffffffffffffffffffffffffffffffffffffffff16815260200190815260200160002060000154610d749190613bb7565b610d7e9190613beb565b905060036000600260008573ffffffffffffffffffffffffffffffffffffffff1673ffffffffffffffffffffffffffffffffffffffff16815260200190815260200160002060060160009054906101000a900473ffffffffffffffffffffffffffffffffffffffff1673ffffffffffffffffffffffffffffffffffffffff1673ffffffffffffffffffffffffffffffffffffffff1681526020019081526020016000206000808201600090556001820160006101000a81549073ffffffffffffffffffffffffffffffffffffffff02191690556002820160006101000a81549073ffffffffffffffffffffffffffffffffffffffff021916905560038201600090555050600260008373ffffffffffffffffffffffffffffffffffffffff1673ffffffffffffffffffffffffffffffffffffffff1681526020019081526020016000206000808201600090556001820160009055600282016000905560038201600090556004820160006101000a81549073ffffffffffffffffffffffffffffffffffffffff02191690556005820160006101000a81549073ffffffffffffffffffffffffffffffffffffffff02191690556006820160006101000a81549073ffffffffffffffffffffffffffffffffffffffff021916905560078201600090556008820160006101000a81549060ff02191690556009820160009055600a82016000905550503373ffffffffffffffffffffffffffffffffffffffff166108fc829081150290604051600060405180830381858888f19350505050158015610fcb573d6000803e3d6000fd5b505050565b60018181548110610fe057600080fd5b906000526020600020016000915054906101000a900473ffffffffffffffffffffffffffffffffffffffff1681565b60005481565b600073ffffffffffffffffffffffffffffffffffffffff16600260008373ffffffffffffffffffffffffffffffffffffffff1673ffffffffffffffffffffffffffffffffffffffff16815260200190815260200160002060050160009054906101000a900473ffffffffffffffffffffffffffffffffffffffff1673ffffffffffffffffffffffffffffffffffffffff16036110e6576040517f08c379a00000000000000000000000000000000000000000000000000000000081526004016110dd906138ec565b60405180910390fd5b600073ffffffffffffffffffffffffffffffffffffffff16600260008373ffffffffffffffffffffffffffffffffffffffff1673ffffffffffffffffffffffffffffffffffffffff16815260200190815260200160002060040160009054906101000a900473ffffffffffffffffffffffffffffffffffffffff1673ffffffffffffffffffffffffffffffffffffffff16146111b7576040517f08c379a00000000000000000000000000000000000000000000000000000000081526004016111ae90613c9f565b60405180910390fd5b3373ffffffffffffffffffffffffffffffffffffffff16600260008373ffffffffffffffffffffffffffffffffffffffff1673ffffffffffffffffffffffffffffffffffffffff16815260200190815260200160002060050160009054906101000a900473ffffffffffffffffffffffffffffffffffffffff1673ffffffffffffffffffffffffffffffffffffffff1603611287576040517f08c379a000000000000000000000000000000000000000000000000000000000815260040161127e90613d0b565b60405180910390fd5b3373ffffffffffffffffffffffffffffffffffffffff16600260008373ffffffffffffffffffffffffffffffffffffffff1673ffffffffffffffffffffffffffffffffffffffff16815260200190815260200160002060060160009054906101000a900473ffffffffffffffffffffffffffffffffffffffff1673ffffffffffffffffffffffffffffffffffffffff1603611357576040517f08c379a000000000000000000000000000000000000000000000000000000000815260040161134e90613d0b565b60405180910390fd5b600260008273ffffffffffffffffffffffffffffffffffffffff1673ffffffffffffffffffffffffffffffffffffffff1681526020019081526020016000206000015466038d7ea4c68000346113ad9190613d5a565b146113ed576040517f08c379a00000000000000000000000000000000000000000000000000000000081526004016113e490613dfd565b60405180910390fd5b33600260008373ffffffffffffffffffffffffffffffffffffffff1673ffffffffffffffffffffffffffffffffffffffff16815260200190815260200160002060040160006101000a81548173ffffffffffffffffffffffffffffffffffffffff021916908373ffffffffffffffffffffffffffffffffffffffff1602179055506000600260008373ffffffffffffffffffffffffffffffffffffffff1673ffffffffffffffffffffffffffffffffffffffff168152602001908152602001600020600a018190555062015180600260008373ffffffffffffffffffffffffffffffffffffffff1673ffffffffffffffffffffffffffffffffffffffff168152602001908152602001600020600201546115079190613beb565b426115129190613bb7565b600260008373ffffffffffffffffffffffffffffffffffffffff1673ffffffffffffffffffffffffffffffffffffffff16815260200190815260200160002060020181905550600260008273ffffffffffffffffffffffffffffffffffffffff1673ffffffffffffffffffffffffffffffffffffffff16815260200190815260200160002060050160009054906101000a900473ffffffffffffffffffffffffffffffffffffffff1673ffffffffffffffffffffffffffffffffffffffff166108fc349081150290604051600060405180830381858888f19350505050158015611600573d6000803e3d6000fd5b5050565b600073ffffffffffffffffffffffffffffffffffffffff16600260003373ffffffffffffffffffffffffffffffffffffffff1673ffffffffffffffffffffffffffffffffffffffff16815260200190815260200160002060050160009054906101000a900473ffffffffffffffffffffffffffffffffffffffff1673ffffffffffffffffffffffffffffffffffffffff16036116d5576040517f08c379a00000000000000000000000000000000000000000000000000000000081526004016116cc906138ec565b60405180910390fd5b600073ffffffffffffffffffffffffffffffffffffffff16600260003373ffffffffffffffffffffffffffffffffffffffff1673ffffffffffffffffffffffffffffffffffffffff16815260200190815260200160002060040160009054906101000a900473ffffffffffffffffffffffffffffffffffffffff1673ffffffffffffffffffffffffffffffffffffffff16036117a6576040517f08c379a000000000000000000000000000000000000000000000000000000000815260040161179d90613a53565b60405180910390fd5b3373ffffffffffffffffffffffffffffffffffffffff16600260003373ffffffffffffffffffffffffffffffffffffffff1673ffffffffffffffffffffffffffffffffffffffff16815260200190815260200160002060050160009054906101000a900473ffffffffffffffffffffffffffffffffffffffff1673ffffffffffffffffffffffffffffffffffffffff1614611876576040517f08c379a000000000000000000000000000000000000000000000000000000000815260040161186d90613e69565b60405180910390fd5b600260003373ffffffffffffffffffffffffffffffffffffffff1673ffffffffffffffffffffffffffffffffffffffff16815260200190815260200160002060030154600260003373ffffffffffffffffffffffffffffffffffffffff1673ffffffffffffffffffffffffffffffffffffffff168152602001908152602001600020600001546119069190613bb7565b66038d7ea4c68000346119199190613d5a565b111580156119275750600034115b611966576040517f08c379a000000000000000000000000000000000000000000000000000000000815260040161195d90613efb565b60405180910390fd5b600260003373ffffffffffffffffffffffffffffffffffffffff1673ffffffffffffffffffffffffffffffffffffffff16815260200190815260200160002060030154600260003373ffffffffffffffffffffffffffffffffffffffff1673ffffffffffffffffffffffffffffffffffffffff168152602001908152602001600020600001546119f69190613bb7565b66038d7ea4c6800034611a099190613d5a565b600260003373ffffffffffffffffffffffffffffffffffffffff1673ffffffffffffffffffffffffffffffffffffffff168152602001908152602001600020600a0154611a569190613bb7565b1015611acc5766038d7ea4c6800034611a6f9190613d5a565b600260003373ffffffffffffffffffffffffffffffffffffffff1673ffffffffffffffffffffffffffffffffffffffff168152602001908152602001600020600a016000828254611ac09190613bb7565b92505081905550611f87565b66038d7ea4c6800034611adf9190613d5a565b600260003373ffffffffffffffffffffffffffffffffffffffff1673ffffffffffffffffffffffffffffffffffffffff168152602001908152602001600020600a016000828254611b309190613bb7565b925050819055506000600260003373ffffffffffffffffffffffffffffffffffffffff1673ffffffffffffffffffffffffffffffffffffffff16815260200190815260200160002060060160009054906101000a900473ffffffffffffffffffffffffffffffffffffffff169050600066038d7ea4c68000600360008473ffffffffffffffffffffffffffffffffffffffff1673ffffffffffffffffffffffffffffffffffffffff16815260200190815260200160002060000154600260003373ffffffffffffffffffffffffffffffffffffffff1673ffffffffffffffffffffffffffffffffffffffff16815260200190815260200160002060000154611c389190613bb7565b611c429190613beb565b90506000600260003373ffffffffffffffffffffffffffffffffffffffff1673ffffffffffffffffffffffffffffffffffffffff16815260200190815260200160002060040160009054906101000a900473ffffffffffffffffffffffffffffffffffffffff169050600066038d7ea4c68000600260003373ffffffffffffffffffffffffffffffffffffffff1673ffffffffffffffffffffffffffffffffffffffff16815260200190815260200160002060070154600260003373ffffffffffffffffffffffffffffffffffffffff1673ffffffffffffffffffffffffffffffffffffffff16815260200190815260200160002060000154611d459190613bb7565b611d4f9190613beb565b9050600360008573ffffffffffffffffffffffffffffffffffffffff1673ffffffffffffffffffffffffffffffffffffffff1681526020019081526020016000206000808201600090556001820160006101000a81549073ffffffffffffffffffffffffffffffffffffffff02191690556002820160006101000a81549073ffffffffffffffffffffffffffffffffffffffff021916905560038201600090555050600260003373ffffffffffffffffffffffffffffffffffffffff1673ffffffffffffffffffffffffffffffffffffffff1681526020019081526020016000206000808201600090556001820160009055600282016000905560038201600090556004820160006101000a81549073ffffffffffffffffffffffffffffffffffffffff02191690556005820160006101000a81549073ffffffffffffffffffffffffffffffffffffffff02191690556006820160006101000a81549073ffffffffffffffffffffffffffffffffffffffff021916905560078201600090556008820160006101000a81549060ff02191690556009820160009055600a82016000905550508373ffffffffffffffffffffffffffffffffffffffff166108fc849081150290604051600060405180830381858888f19350505050158015611f3a573d6000803e3d6000fd5b508173ffffffffffffffffffffffffffffffffffffffff166108fc829081150290604051600060405180830381858888f19350505050158015611f81573d6000803e3d6000fd5b50505050505b565b600073ffffffffffffffffffffffffffffffffffffffff16600260003373ffffffffffffffffffffffffffffffffffffffff1673ffffffffffffffffffffffffffffffffffffffff16815260200190815260200160002060050160009054906101000a900473ffffffffffffffffffffffffffffffffffffffff1673ffffffffffffffffffffffffffffffffffffffff160361205a576040517f08c379a0000000000000000000000000000000000000000000000000000000008152600401612051906138ec565b60405180910390fd5b3373ffffffffffffffffffffffffffffffffffffffff16600260003373ffffffffffffffffffffffffffffffffffffffff1673ffffffffffffffffffffffffffffffffffffffff16815260200190815260200160002060050160009054906101000a900473ffffffffffffffffffffffffffffffffffffffff1673ffffffffffffffffffffffffffffffffffffffff161461212a576040517f08c379a000000000000000000000000000000000000000000000000000000000815260040161212190613f8d565b60405180910390fd5b60001515600260003373ffffffffffffffffffffffffffffffffffffffff1673ffffffffffffffffffffffffffffffffffffffff16815260200190815260200160002060080160009054906101000a900460ff161515146121c0576040517f08c379a00000000000000000000000000000000000000000000000000000000081526004016121b79061401f565b60405180910390fd5b600073ffffffffffffffffffffffffffffffffffffffff16600260003373ffffffffffffffffffffffffffffffffffffffff1673ffffffffffffffffffffffffffffffffffffffff16815260200190815260200160002060040160009054906101000a900473ffffffffffffffffffffffffffffffffffffffff1673ffffffffffffffffffffffffffffffffffffffff1614612291576040517f08c379a000000000000000000000000000000000000000000000000000000000815260040161228890613c9f565b60405180910390fd5b3373ffffffffffffffffffffffffffffffffffffffff16600360008473ffffffffffffffffffffffffffffffffffffffff1673ffffffffffffffffffffffffffffffffffffffff16815260200190815260200160002060020160009054906101000a900473ffffffffffffffffffffffffffffffffffffffff1673ffffffffffffffffffffffffffffffffffffffff1614612361576040517f08c379a00000000000000000000000000000000000000000000000000000000081526004016123589061408b565b60405180910390fd5b600073ffffffffffffffffffffffffffffffffffffffff16600360008473ffffffffffffffffffffffffffffffffffffffff1673ffffffffffffffffffffffffffffffffffffffff16815260200190815260200160002060010160009054906101000a900473ffffffffffffffffffffffffffffffffffffffff1673ffffffffffffffffffffffffffffffffffffffff1603612432576040517f08c379a0000000000000000000000000000000000000000000000000000000008152600401612429906140f7565b60405180910390fd5b80156125ef5781600260003373ffffffffffffffffffffffffffffffffffffffff1673ffffffffffffffffffffffffffffffffffffffff16815260200190815260200160002060060160006101000a81548173ffffffffffffffffffffffffffffffffffffffff021916908373ffffffffffffffffffffffffffffffffffffffff160217905550600360008373ffffffffffffffffffffffffffffffffffffffff1673ffffffffffffffffffffffffffffffffffffffff16815260200190815260200160002060000154600260003373ffffffffffffffffffffffffffffffffffffffff1673ffffffffffffffffffffffffffffffffffffffff168152602001908152602001600020600301546125499190614117565b600260003373ffffffffffffffffffffffffffffffffffffffff1673ffffffffffffffffffffffffffffffffffffffff168152602001908152602001600020600701819055506001600260003373ffffffffffffffffffffffffffffffffffffffff1673ffffffffffffffffffffffffffffffffffffffff16815260200190815260200160002060080160006101000a81548160ff02191690831515021790555061271f565b6000600360008473ffffffffffffffffffffffffffffffffffffffff1673ffffffffffffffffffffffffffffffffffffffff168152602001908152602001600020600301549050600360008473ffffffffffffffffffffffffffffffffffffffff1673ffffffffffffffffffffffffffffffffffffffff1681526020019081526020016000206000808201600090556001820160006101000a81549073ffffffffffffffffffffffffffffffffffffffff02191690556002820160006101000a81549073ffffffffffffffffffffffffffffffffffffffff0219169055600382016000905550508273ffffffffffffffffffffffffffffffffffffffff166108fc829081150290604051600060405180830381858888f1935050505015801561271c573d6000803e3d6000fd5b50505b7f7a409a7b6845bafd30090f145cc2c352afb410d0933dd19b6208dbf5070b0e6d828260405161275092919061414b565b60405180910390a15050565b600073ffffffffffffffffffffffffffffffffffffffff16600260003373ffffffffffffffffffffffffffffffffffffffff1673ffffffffffffffffffffffffffffffffffffffff16815260200190815260200160002060050160009054906101000a900473ffffffffffffffffffffffffffffffffffffffff1673ffffffffffffffffffffffffffffffffffffffff161461282d576040517f08c379a0000000000000000000000000000000000000000000000000000000008152600401612824906141c0565b60405180910390fd5b60008081548092919061283f90613999565b919050555033600260003373ffffffffffffffffffffffffffffffffffffffff1673ffffffffffffffffffffffffffffffffffffffff16815260200190815260200160002060050160006101000a81548173ffffffffffffffffffffffffffffffffffffffff021916908373ffffffffffffffffffffffffffffffffffffffff160217905550600054600260003373ffffffffffffffffffffffffffffffffffffffff1673ffffffffffffffffffffffffffffffffffffffff1681526020019081526020016000206009018190555080600260003373ffffffffffffffffffffffffffffffffffffffff1673ffffffffffffffffffffffffffffffffffffffff1681526020019081526020016000206003018190555082600260003373ffffffffffffffffffffffffffffffffffffffff1673ffffffffffffffffffffffffffffffffffffffff1681526020019081526020016000206000018190555081600260003373ffffffffffffffffffffffffffffffffffffffff1673ffffffffffffffffffffffffffffffffffffffff1681526020019081526020016000206002018190555042600260003373ffffffffffffffffffffffffffffffffffffffff1673ffffffffffffffffffffffffffffffffffffffff168152602001908152602001600020600101819055506000600260003373ffffffffffffffffffffffffffffffffffffffff1673ffffffffffffffffffffffffffffffffffffffff16815260200190815260200160002060080160006101000a81548160ff0219169083151502179055507ffaa0eee81e6f1e2bbe76f85a2915c15c92d42b067f51831eff7b25c538f68938600054843384600260003373ffffffffffffffffffffffffffffffffffffffff1673ffffffffffffffffffffffffffffffffffffffff16815260200190815260200160002060020154600260003373ffffffffffffffffffffffffffffffffffffffff1673ffffffffffffffffffffffffffffffffffffffff16815260200190815260200160002060010154604051612b44969594939291906141e0565b60405180910390a1505050565b600073ffffffffffffffffffffffffffffffffffffffff16600260008373ffffffffffffffffffffffffffffffffffffffff1673ffffffffffffffffffffffffffffffffffffffff16815260200190815260200160002060050160009054906101000a900473ffffffffffffffffffffffffffffffffffffffff1673ffffffffffffffffffffffffffffffffffffffff1603612c22576040517f08c379a0000000000000000000000000000000000000000000000000000000008152600401612c19906138ec565b60405180910390fd5b60001515600260008373ffffffffffffffffffffffffffffffffffffffff1673ffffffffffffffffffffffffffffffffffffffff16815260200190815260200160002060080160009054906101000a900460ff16151514612cb8576040517f08c379a0000000000000000000000000000000000000000000000000000000008152600401612caf9061401f565b60405180910390fd5b600073ffffffffffffffffffffffffffffffffffffffff16600260008373ffffffffffffffffffffffffffffffffffffffff1673ffffffffffffffffffffffffffffffffffffffff16815260200190815260200160002060040160009054906101000a900473ffffffffffffffffffffffffffffffffffffffff1673ffffffffffffffffffffffffffffffffffffffff1614612d89576040517f08c379a0000000000000000000000000000000000000000000000000000000008152600401612d8090613c9f565b60405180910390fd5b3373ffffffffffffffffffffffffffffffffffffffff16600260008373ffffffffffffffffffffffffffffffffffffffff1673ffffffffffffffffffffffffffffffffffffffff16815260200190815260200160002060050160009054906101000a900473ffffffffffffffffffffffffffffffffffffffff1673ffffffffffffffffffffffffffffffffffffffff1603612e59576040517f08c379a0000000000000000000000000000000000000000000000000000000008152600401612e5090613d0b565b60405180910390fd5b81600260008373ffffffffffffffffffffffffffffffffffffffff1673ffffffffffffffffffffffffffffffffffffffff1681526020019081526020016000206003015411612edd576040517f08c379a0000000000000000000000000000000000000000000000000000000008152600401612ed49061428d565b60405180910390fd5b600260008273ffffffffffffffffffffffffffffffffffffffff1673ffffffffffffffffffffffffffffffffffffffff1681526020019081526020016000206000015466038d7ea4c6800034612f339190613d5a565b14612f73576040517f08c379a0000000000000000000000000000000000000000000000000000000008152600401612f6a90613dfd565b60405180910390fd5b600260008273ffffffffffffffffffffffffffffffffffffffff1673ffffffffffffffffffffffffffffffffffffffff16815260200190815260200160002060050160009054906101000a900473ffffffffffffffffffffffffffffffffffffffff16600360003373ffffffffffffffffffffffffffffffffffffffff1673ffffffffffffffffffffffffffffffffffffffff16815260200190815260200160002060020160006101000a81548173ffffffffffffffffffffffffffffffffffffffff021916908373ffffffffffffffffffffffffffffffffffffffff16021790555033600360003373ffffffffffffffffffffffffffffffffffffffff1673ffffffffffffffffffffffffffffffffffffffff16815260200190815260200160002060010160006101000a81548173ffffffffffffffffffffffffffffffffffffffff021916908373ffffffffffffffffffffffffffffffffffffffff16021790555081600360003373ffffffffffffffffffffffffffffffffffffffff1673ffffffffffffffffffffffffffffffffffffffff1681526020019081526020016000206000018190555034600360003373ffffffffffffffffffffffffffffffffffffffff1673ffffffffffffffffffffffffffffffffffffffff168152602001908152602001600020600301819055507f276d14191c108902d4f65e24217439a1c1e14d709a1690220bdaadf330ed89f481836040516131969291906142ad565b60405180910390a15050565b60405180610160016040528060008152602001600081526020016000815260200160008152602001600073ffffffffffffffffffffffffffffffffffffffff168152602001600073ffffffffffffffffffffffffffffffffffffffff168152602001600073ffffffffffffffffffffffffffffffffffffffff1681526020016000815260200160001515815260200160008152602001600081525090565b600080fd5b600073ffffffffffffffffffffffffffffffffffffffff82169050919050565b600061327082613245565b9050919050565b61328081613265565b811461328b57600080fd5b50565b60008135905061329d81613277565b92915050565b6000602082840312156132b9576132b8613240565b5b60006132c78482850161328e565b91505092915050565b6000819050919050565b6132e3816132d0565b82525050565b60006132f482613245565b9050919050565b613304816132e9565b82525050565b60008115159050919050565b61331f8161330a565b82525050565b60006101608201905061333b600083018e6132da565b613348602083018d6132da565b613355604083018c6132da565b613362606083018b6132da565b61336f608083018a6132fb565b61337c60a08301896132fb565b61338960c08301886132fb565b61339660e08301876132da565b6133a4610100830186613316565b6133b26101208301856132da565b6133c06101408301846132da565b9c9b505050505050505050505050565b6133d9816132d0565b82525050565b6133e8816132e9565b82525050565b6133f78161330a565b82525050565b6101608201600082015161341460008501826133d0565b50602082015161342760208501826133d0565b50604082015161343a60408501826133d0565b50606082015161344d60608501826133d0565b50608082015161346060808501826133df565b5060a082015161347360a08501826133df565b5060c082015161348660c08501826133df565b5060e082015161349960e08501826133d0565b506101008201516134ae6101008501826133ee565b506101208201516134c36101208501826133d0565b506101408201516134d86101408501826133d0565b50505050565b6000610160820190506134f460008301846133fd565b92915050565b600081519050919050565b600082825260208201905092915050565b6000819050602082019050919050565b6101608201600082015161353d60008501826133d0565b50602082015161355060208501826133d0565b50604082015161356360408501826133d0565b50606082015161357660608501826133d0565b50608082015161358960808501826133df565b5060a082015161359c60a08501826133df565b5060c08201516135af60c08501826133df565b5060e08201516135c260e08501826133d0565b506101008201516135d76101008501826133ee565b506101208201516135ec6101208501826133d0565b506101408201516136016101408501826133d0565b50505050565b60006136138383613526565b6101608301905092915050565b6000602082019050919050565b6000613638826134fa565b6136428185613505565b935061364d83613516565b8060005b8381101561367e5781516136658882613607565b975061367083613620565b925050600181019050613651565b5085935050505092915050565b600060208201905081810360008301526136a5818461362d565b905092915050565b60006080820190506136c260008301876132da565b6136cf60208301866132fb565b6136dc60408301856132fb565b6136e960608301846132da565b95945050505050565b6136fb816132d0565b811461370657600080fd5b50565b600081359050613718816136f2565b92915050565b60006020828403121561373457613733613240565b5b600061374284828501613709565b91505092915050565b61375481613265565b82525050565b600060208201905061376f600083018461374b565b92915050565b600060208201905061378a60008301846132da565b92915050565b6137998161330a565b81146137a457600080fd5b50565b6000813590506137b681613790565b92915050565b600080604083850312156137d3576137d2613240565b5b60006137e18582860161328e565b92505060206137f2858286016137a7565b9150509250929050565b60008060006060848603121561381557613814613240565b5b600061382386828701613709565b935050602061383486828701613709565b925050604061384586828701613709565b9150509250925092565b6000806040838503121561386657613865613240565b5b600061387485828601613709565b92505060206138858582860161328e565b9150509250929050565b600082825260208201905092915050565b7f4c6f616e207265717565737420646f6573206e6f742065786973740000000000600082015250565b60006138d6601b8361388f565b91506138e1826138a0565b602082019050919050565b60006020820190508181036000830152613905816138c9565b9050919050565b7f4e487b7100000000000000000000000000000000000000000000000000000000600052604160045260246000fd5b7f4e487b7100000000000000000000000000000000000000000000000000000000600052603260045260246000fd5b7f4e487b7100000000000000000000000000000000000000000000000000000000600052601160045260246000fd5b60006139a4826132d0565b91507fffffffffffffffffffffffffffffffffffffffffffffffffffffffffffffffff82036139d6576139d561396a565b5b600182019050919050565b7f4c6f616e207265717565737420686173206e6f74206265656e20617070726f7660008201527f6564000000000000000000000000000000000000000000000000000000000000602082015250565b6000613a3d60228361388f565b9150613a48826139e1565b604082019050919050565b60006020820190508181036000830152613a6c81613a30565b9050919050565b7f4f6e6c79204c656e646f722063616e20636c61696d2067756172616e74656500600082015250565b6000613aa9601f8361388f565b9150613ab482613a73565b602082019050919050565b60006020820190508181036000830152613ad881613a9c565b9050919050565b7f4c6f616e204e6f742047756172616e7465656400000000000000000000000000600082015250565b6000613b1560138361388f565b9150613b2082613adf565b602082019050919050565b60006020820190508181036000830152613b4481613b08565b9050919050565b7f4c6f616e204461746520686173206e6f74206c61707365642079657421210000600082015250565b6000613b81601e8361388f565b9150613b8c82613b4b565b602082019050919050565b60006020820190508181036000830152613bb081613b74565b9050919050565b6000613bc2826132d0565b9150613bcd836132d0565b9250828201905080821115613be557613be461396a565b5b92915050565b6000613bf6826132d0565b9150613c01836132d0565b9250828202613c0f816132d0565b91508282048414831517613c2657613c2561396a565b5b5092915050565b7f4c6f616e207265717565737420686173206265656e20616c726561647920617060008201527f70726f7665640000000000000000000000000000000000000000000000000000602082015250565b6000613c8960268361388f565b9150613c9482613c2d565b604082019050919050565b60006020820190508181036000830152613cb881613c7c565b9050919050565b7f496e76616c696420526571756573740000000000000000000000000000000000600082015250565b6000613cf5600f8361388f565b9150613d0082613cbf565b602082019050919050565b60006020820190508181036000830152613d2481613ce8565b9050919050565b7f4e487b7100000000000000000000000000000000000000000000000000000000600052601260045260246000fd5b6000613d65826132d0565b9150613d70836132d0565b925082613d8057613d7f613d2b565b5b828204905092915050565b7f506c6561736520706c6564676520746865206578616374206c6f616e20616d6f60008201527f756e740000000000000000000000000000000000000000000000000000000000602082015250565b6000613de760238361388f565b9150613df282613d8b565b604082019050919050565b60006020820190508181036000830152613e1681613dda565b9050919050565b7f4f6e6c7920426f72726f7765722063616e2070617920696e7465726573740000600082015250565b6000613e53601e8361388f565b9150613e5e82613e1d565b602082019050919050565b60006020820190508181036000830152613e8281613e46565b9050919050565b7f506c656173652073656e642076616c696420696e74657265737420616d6f756e60008201527f7400000000000000000000000000000000000000000000000000000000000000602082015250565b6000613ee560218361388f565b9150613ef082613e89565b604082019050919050565b60006020820190508181036000830152613f1481613ed8565b9050919050565b7f4f6e6c7920426f72726f7765722063616e20617070726f76652074686520677560008201527f6172616e746f7200000000000000000000000000000000000000000000000000602082015250565b6000613f7760278361388f565b9150613f8282613f1b565b604082019050919050565b60006020820190508181036000830152613fa681613f6a565b9050919050565b7f4c6f616e20726571756573742068617320616c7265616479206265656e20677560008201527f6172656e74656564000000000000000000000000000000000000000000000000602082015250565b600061400960288361388f565b915061401482613fad565b604082019050919050565b6000602082019050818103600083015261403881613ffc565b9050919050565b7f496e76616c69642047756172616e746f72000000000000000000000000000000600082015250565b600061407560118361388f565b91506140808261403f565b602082019050919050565b600060208201905081810360008301526140a481614068565b9050919050565b7f47756172656e7465652050726f706f73616c20646f65736e7420657869737400600082015250565b60006140e1601f8361388f565b91506140ec826140ab565b602082019050919050565b60006020820190508181036000830152614110816140d4565b9050919050565b6000614122826132d0565b915061412d836132d0565b92508282039050818111156141455761414461396a565b5b92915050565b6000604082019050614160600083018561374b565b61416d6020830184613316565b9392505050565b7f4c6f616e205265717565737420616c7265616479206578697374730000000000600082015250565b60006141aa601b8361388f565b91506141b582614174565b602082019050919050565b600060208201905081810360008301526141d98161419d565b9050919050565b600060c0820190506141f560008301896132da565b61420260208301886132da565b61420f604083018761374b565b61421c60608301866132da565b61422960808301856132da565b61423660a08301846132da565b979650505050505050565b7f4869676820496e746572657374206375746f6666000000000000000000000000600082015250565b600061427760148361388f565b915061428282614241565b602082019050919050565b600060208201905081810360008301526142a68161426a565b9050919050565b60006040820190506142c2600083018561374b565b6142cf60208301846132da565b939250505056fea2646970667358221220c81532210bda510e9ba8b17e327c30ee114d00167fb460d8404bfb5e88e2998164736f6c63430008110033",
  "linkReferences": {},
  "deployedLinkReferences": {}
}